:1000000000308A0004280000840183131F30830518
:1000100083161F149F141F159F1107309C0000307A
:1000200085008700091089100911831205148514B1
:10003000051585158316091083120910831689107A
:10004000831289148316091183120911871007116D
:10005000221005182214221837288316091083123B
:100060000914831689108312891087140711A210AE
:100070008518A214A21846288316091083120914A1
:10008000831689108312891007158710221185198C
:100090002215221959288316891083128914831670
:1000A000091083120910831609118312091107110F
:1000B000871022110519221522196B2883160911A0
:1000C000831209158316891083128910F4309B005E
:0A00D0001D08CF399D0028286300A9
:02400E00713F00
:00000001FF
;PIC16F877A
;CRC=C7F8  CREATED="15-Jun-21 19:54"
