:1000000000308A0091280000223084008313000809
:10001000031918280130F800F701F70B0D28F80B29
:100020000C284A30F700F70B13281628800B0A28F3
:1000300008001230A202031C2C28223084008313F3
:10004000FC3080050310800C800C000803192C285C
:100050002A280000800B2928080007140130A2007C
:1000600004200930A1005630A2001920A10B33282A
:1000700007101430A2000420080007140130A20069
:1000800004200230A100EE30A2001920A10B432869
:1000900007101430A20004200800831609108312F0
:1000A00009140800831609108312091008004D2056
:1000B000FA30A20004205220FA30A20004204D2081
:1000C000FA30A20004205220080007140130A200D8
:1000D00004200330A100D430A2001920A10B6B280A
:1000E00007101430A2000420080007140130A200F9
:1000F00004200230A1009330A2001920A10B7B281C
:1001000007101430A2000420080007140130A200D8
:100110000420ED30A200192007101430A2000420A2
:100120000800840183131F30830583161F149F1456
:100130001F159F1107309C000030850087000910B3
:100140008910091183120514851405158515831668
:1001500009108312091083168910831289108316DF
:1001600009118312091120100518201420180E29D6
:1001700083160911831209152D200230A100FA30CF
:10018000A2000420A10BBF283D200230A100FA30BC
:10019000A2000420A10BC7282D200230A100FA30B4
:1001A000A2000420A10BCF283D200230A100FA308C
:1001B000A2000420A10BD7282D200230A100FA3084
:1001C000A2000420A10BDF283D200230A100FA305C
:1001D000A2000420A10BE7282D200230A100FA3054
:1001E000A2000420A10BEF283D200230A100FA302C
:1001F000A2000420A10BF7282D200230A100FA3024
:10020000A2000420A10BFF283D20831609118312B0
:1002100009115720FA30A20004205720A010851899
:10022000A014A018592983160911831209156520F5
:100230000330A100FA30A2000420A10B1A293D20AE
:100240000330A100FA30A2000420A10B222965206E
:100250000330A100FA30A2000420A10B2A293D207E
:100260000330A100FA30A2000420A10B322965203E
:100270000330A100FA30A2000420A10B3A293D204E
:100280000330A100FA30A2000420A10B422965200E
:100290000330A100FA30A2000420A10B4A293D201E
:1002A00083160911831209115720FA30A200042085
:1002B00057202011051920152019AB298316891004
:1002C0008312891475200330A100FA30A2000420A3
:1002D000A10B65293D200330A100FA30A2000420C3
:1002E000A10B6D2975200330A100FA30A200042073
:1002F000A10B75293D200330A100FA30A200042093
:10030000A10B7D2975200330A100FA30A200042042
:10031000A10B85293D200330A100FA30A200042062
:10032000A10B8D2975200330A100FA30A200042012
:10033000A10B95293D200330A100FA30A200042032
:10034000A10B9D2983168910831289105720FA303A
:10035000A200042057202011851920152019F62904
:10036000831689108312891485200330A100FA3086
:10037000A2000420A10BB7293D200330A100FA30D0
:10038000A2000420A10BBF2985200330A100FA3070
:10039000A2000420A10BC7293D200330A100FA30A0
:1003A000A2000420A10BCF2985200330A100FA3040
:1003B000A2000420A10BD7293D200330A100FA3070
:1003C000A2000420A10BDF2985200330A100FA3010
:1003D000A2000420A10BE7293D2083168910831277
:1003E00089105720FA30A20004205720B328630058
:02400E00713F00
:00000001FF
;PIC16F877A
;CRC=C0CA  CREATED="15-Jun-21 19:48"
